{
  "contractName": "Marketplace",
  "abi": [
    {
      "inputs": [],
      "name": "ReentrancyGuardReentrantCall",
      "type": "error"
    },
    {
      "inputs": [],
      "name": "listingCounter",
      "outputs": [
        {
          "internalType": "uint256",
          "name": "",
          "type": "uint256"
        }
      ],
      "stateMutability": "view",
      "type": "function",
      "constant": true
    },
    {
      "inputs": [
        {
          "internalType": "uint256",
          "name": "",
          "type": "uint256"
        }
      ],
      "name": "listings",
      "outputs": [
        {
          "internalType": "uint256",
          "name": "tokenId",
          "type": "uint256"
        },
        {
          "internalType": "address",
          "name": "tokenAddress",
          "type": "address"
        },
        {
          "internalType": "address",
          "name": "seller",
          "type": "address"
        },
        {
          "internalType": "uint256",
          "name": "price",
          "type": "uint256"
        },
        {
          "internalType": "string",
          "name": "image",
          "type": "string"
        }
      ],
      "stateMutability": "view",
      "type": "function",
      "constant": true
    },
    {
      "inputs": [
        {
          "internalType": "address",
          "name": "tokenAddress",
          "type": "address"
        },
        {
          "internalType": "uint256",
          "name": "tokenId",
          "type": "uint256"
        },
        {
          "internalType": "uint256",
          "name": "price",
          "type": "uint256"
        },
        {
          "internalType": "string",
          "name": "image",
          "type": "string"
        }
      ],
      "name": "listNFT",
      "outputs": [],
      "stateMutability": "nonpayable",
      "type": "function"
    },
    {
      "inputs": [
        {
          "internalType": "uint256",
          "name": "listingId",
          "type": "uint256"
        }
      ],
      "name": "buyNFT",
      "outputs": [],
      "stateMutability": "payable",
      "type": "function",
      "payable": true
    },
    {
      "inputs": [
        {
          "internalType": "uint256",
          "name": "listingId",
          "type": "uint256"
        }
      ],
      "name": "getListing",
      "outputs": [
        {
          "components": [
            {
              "internalType": "uint256",
              "name": "tokenId",
              "type": "uint256"
            },
            {
              "internalType": "address",
              "name": "tokenAddress",
              "type": "address"
            },
            {
              "internalType": "address",
              "name": "seller",
              "type": "address"
            },
            {
              "internalType": "uint256",
              "name": "price",
              "type": "uint256"
            },
            {
              "internalType": "string",
              "name": "image",
              "type": "string"
            }
          ],
          "internalType": "struct Marketplace.Listing",
          "name": "",
          "type": "tuple"
        }
      ],
      "stateMutability": "view",
      "type": "function",
      "constant": true
    }
  ],
  "bytecode": "0x608060405234801561001057600080fd5b5060016000819055506112d5806100286000396000f3fe608060405260043610610067576000357c010000000000000000000000000000000000000000000000000000000090048063107a274a1461006c57806351ed8288146100a95780636c2c9c7d146100c5578063a0441780146100f0578063de74e57b14610119575b600080fd5b34801561007857600080fd5b50610093600480360381019061008e9190610a3b565b61015a565b6040516100a09190610bbe565b60405180910390f35b6100c360048036038101906100be9190610a3b565b6102d9565b005b3480156100d157600080fd5b506100da610609565b6040516100e79190610bef565b60405180910390f35b3480156100fc57600080fd5b5061011760048036038101906101129190610d6b565b61060f565b005b34801561012557600080fd5b50610140600480360381019061013b9190610a3b565b6107eb565b604051610151959493929190610e47565b60405180910390f35b610162610939565b600160008381526020019081526020016000206040518060a0016040529081600082015481526020016001820160009054906101000a900473ffffffffffffffffffffffffffffffffffffffff1673ffffffffffffffffffffffffffffffffffffffff1673ffffffffffffffffffffffffffffffffffffffff1681526020016002820160009054906101000a900473ffffffffffffffffffffffffffffffffffffffff1673ffffffffffffffffffffffffffffffffffffffff1673ffffffffffffffffffffffffffffffffffffffff1681526020016003820154815260200160048201805461025090610ed0565b80601f016020809104026020016040519081016040528092919081815260200182805461027c90610ed0565b80156102c95780601f1061029e576101008083540402835291602001916102c9565b820191906000526020600020905b8154815290600101906020018083116102ac57829003601f168201915b5050505050815250509050919050565b6102e16108e9565b6000600160008381526020019081526020016000206040518060a0016040529081600082015481526020016001820160009054906101000a900473ffffffffffffffffffffffffffffffffffffffff1673ffffffffffffffffffffffffffffffffffffffff1673ffffffffffffffffffffffffffffffffffffffff1681526020016002820160009054906101000a900473ffffffffffffffffffffffffffffffffffffffff1673ffffffffffffffffffffffffffffffffffffffff1673ffffffffffffffffffffffffffffffffffffffff168152602001600382015481526020016004820180546103d190610ed0565b80601f01602080910402602001604051908101604052809291908181526020018280546103fd90610ed0565b801561044a5780601f1061041f5761010080835404028352916020019161044a565b820191906000526020600020905b81548152906001019060200180831161042d57829003601f168201915b50505050508152505090508060600151341461049b576040517f08c379a000000000000000000000000000000000000000000000000000000000815260040161049290610f4d565b60405180910390fd5b600160008381526020019081526020016000206000808201600090556001820160006101000a81549073ffffffffffffffffffffffffffffffffffffffff02191690556002820160006101000a81549073ffffffffffffffffffffffffffffffffffffffff0219169055600382016000905560048201600061051d9190610994565b5050806040015173ffffffffffffffffffffffffffffffffffffffff166108fc349081150290604051600060405180830381858888f19350505050158015610569573d6000803e3d6000fd5b50806020015173ffffffffffffffffffffffffffffffffffffffff166323b872dd303384600001516040518463ffffffff167c01000000000000000000000000000000000000000000000000000000000281526004016105cb93929190610f6d565b600060405180830381600087803b1580156105e557600080fd5b505af11580156105f9573d6000803e3d6000fd5b505050505061060661092f565b50565b60025481565b6106176108e9565b8373ffffffffffffffffffffffffffffffffffffffff166323b872dd3330866040518463ffffffff167c010000000000000000000000000000000000000000000000000000000002815260040161067093929190610f6d565b600060405180830381600087803b15801561068a57600080fd5b505af115801561069e573d6000803e3d6000fd5b505050506040518060a001604052808481526020018573ffffffffffffffffffffffffffffffffffffffff1681526020013373ffffffffffffffffffffffffffffffffffffffff168152602001838152602001828152506001600060025481526020019081526020016000206000820151816000015560208201518160010160006101000a81548173ffffffffffffffffffffffffffffffffffffffff021916908373ffffffffffffffffffffffffffffffffffffffff16021790555060408201518160020160006101000a81548173ffffffffffffffffffffffffffffffffffffffff021916908373ffffffffffffffffffffffffffffffffffffffff1602179055506060820151816003015560808201518160040190816107c19190611156565b50905050600260008154809291906107d890611257565b91905055506107e561092f565b50505050565b60016020528060005260406000206000915090508060000154908060010160009054906101000a900473ffffffffffffffffffffffffffffffffffffffff16908060020160009054906101000a900473ffffffffffffffffffffffffffffffffffffffff169080600301549080600401805461086690610ed0565b80601f016020809104026020016040519081016040528092919081815260200182805461089290610ed0565b80156108df5780601f106108b4576101008083540402835291602001916108df565b820191906000526020600020905b8154815290600101906020018083116108c257829003601f168201915b5050505050905085565b600260005403610925576040517f3ee5aeb500000000000000000000000000000000000000000000000000000000815260040160405180910390fd5b6002600081905550565b6001600081905550565b6040518060a0016040528060008152602001600073ffffffffffffffffffffffffffffffffffffffff168152602001600073ffffffffffffffffffffffffffffffffffffffff16815260200160008152602001606081525090565b5080546109a090610ed0565b6000825580601f106109b257506109d1565b601f0160209004906000526020600020908101906109d091906109d4565b5b50565b5b808211156109ed5760008160009055506001016109d5565b5090565b6000604051905090565b600080fd5b600080fd5b6000819050919050565b610a1881610a05565b8114610a2357600080fd5b50565b600081359050610a3581610a0f565b92915050565b600060208284031215610a5157610a506109fb565b5b6000610a5f84828501610a26565b91505092915050565b610a7181610a05565b82525050565b600073ffffffffffffffffffffffffffffffffffffffff82169050919050565b6000610aa282610a77565b9050919050565b610ab281610a97565b82525050565b600081519050919050565b600082825260208201905092915050565b60005b83811015610af2578082015181840152602081019050610ad7565b60008484015250505050565b6000601f19601f8301169050919050565b6000610b1a82610ab8565b610b248185610ac3565b9350610b34818560208601610ad4565b610b3d81610afe565b840191505092915050565b600060a083016000830151610b606000860182610a68565b506020830151610b736020860182610aa9565b506040830151610b866040860182610aa9565b506060830151610b996060860182610a68565b5060808301518482036080860152610bb18282610b0f565b9150508091505092915050565b60006020820190508181036000830152610bd88184610b48565b905092915050565b610be981610a05565b82525050565b6000602082019050610c046000830184610be0565b92915050565b610c1381610a97565b8114610c1e57600080fd5b50565b600081359050610c3081610c0a565b92915050565b600080fd5b600080fd5b7f4e487b7100000000000000000000000000000000000000000000000000000000600052604160045260246000fd5b610c7882610afe565b810181811067ffffffffffffffff82111715610c9757610c96610c40565b5b80604052505050565b6000610caa6109f1565b9050610cb68282610c6f565b919050565b600067ffffffffffffffff821115610cd657610cd5610c40565b5b610cdf82610afe565b9050602081019050919050565b82818337600083830152505050565b6000610d0e610d0984610cbb565b610ca0565b905082815260208101848484011115610d2a57610d29610c3b565b5b610d35848285610cec565b509392505050565b600082601f830112610d5257610d51610c36565b5b8135610d62848260208601610cfb565b91505092915050565b60008060008060808587031215610d8557610d846109fb565b5b6000610d9387828801610c21565b9450506020610da487828801610a26565b9350506040610db587828801610a26565b925050606085013567ffffffffffffffff811115610dd657610dd5610a00565b5b610de287828801610d3d565b91505092959194509250565b610df781610a97565b82525050565b600082825260208201905092915050565b6000610e1982610ab8565b610e238185610dfd565b9350610e33818560208601610ad4565b610e3c81610afe565b840191505092915050565b600060a082019050610e5c6000830188610be0565b610e696020830187610dee565b610e766040830186610dee565b610e836060830185610be0565b8181036080830152610e958184610e0e565b90509695505050505050565b7f4e487b7100000000000000000000000000000000000000000000000000000000600052602260045260246000fd5b60006002820490506001821680610ee857607f821691505b602082108103610efb57610efa610ea1565b5b50919050565b7f496e636f72726563742070726963650000000000000000000000000000000000600082015250565b6000610f37600f83610dfd565b9150610f4282610f01565b602082019050919050565b60006020820190508181036000830152610f6681610f2a565b9050919050565b6000606082019050610f826000830186610dee565b610f8f6020830185610dee565b610f9c6040830184610be0565b949350505050565b60008190508160005260206000209050919050565b60006020601f8301049050919050565b60008160020a8302905092915050565b6000600883026110097fffffffffffffffffffffffffffffffffffffffffffffffffffffffffffffffff82610fc9565b6110138683610fc9565b95508019841693508086168417925050509392505050565b6000819050919050565b600061105061104b61104684610a05565b61102b565b610a05565b9050919050565b6000819050919050565b61106a83611035565b61107e61107682611057565b848454610fd9565b825550505050565b600090565b611093611086565b61109e818484611061565b505050565b5b818110156110c2576110b760008261108b565b6001810190506110a4565b5050565b601f821115611107576110d881610fa4565b6110e184610fb9565b810160208510156110f0578190505b6111046110fc85610fb9565b8301826110a3565b50505b505050565b60008160020a8304905092915050565b600061112d6000198460080261110c565b1980831691505092915050565b6000611146838361111c565b9150826002028217905092915050565b61115f82610ab8565b67ffffffffffffffff81111561117857611177610c40565b5b6111828254610ed0565b61118d8282856110c6565b600060209050601f8311600181146111c057600084156111ae578287015190505b6111b8858261113a565b865550611220565b601f1984166111ce86610fa4565b60005b828110156111f6578489015182556001820191506020850194506020810190506111d1565b86831015611213578489015161120f601f89168261111c565b8355505b6001600288020188555050505b505050505050565b7f4e487b7100000000000000000000000000000000000000000000000000000000600052601160045260246000fd5b600061126282610a05565b91507fffffffffffffffffffffffffffffffffffffffffffffffffffffffffffffffff820361129457611293611228565b5b60018201905091905056fea2646970667358221220ce1a7bcb2818651b1db7b956482e68cbeca354b3f05256729d62ad8dbaf7877464736f6c63430008140033",
  "immutableReferences": {},
  "source": "// SPDX-License-Identifier: MIT\r\npragma solidity ^0.8.0;\r\n\r\nimport \"@openzeppelin/contracts/utils/ReentrancyGuard.sol\";\r\nimport \"@openzeppelin/contracts/token/ERC721/IERC721.sol\";\r\n\r\ncontract Marketplace is ReentrancyGuard {\r\n    struct Listing {\r\n        uint256 tokenId;\r\n        address tokenAddress;\r\n        address seller;\r\n        uint256 price;\r\n        string image;\r\n    }\r\n\r\n    mapping(uint256 => Listing) public listings;\r\n    uint256 public listingCounter;\r\n\r\n    // Lists an NFT for sale\r\n    function listNFT(address tokenAddress, uint256 tokenId, uint256 price,string memory image) external nonReentrant {\r\n        IERC721(tokenAddress).transferFrom(msg.sender, address(this), tokenId); // Transfer NFT to marketplace\r\n        listings[listingCounter] = Listing(tokenId, tokenAddress, msg.sender, price,image); // Record the listing\r\n        listingCounter++;\r\n    }\r\n\r\n    // Allows a user to buy an NFT\r\n    function buyNFT(uint256 listingId) external payable nonReentrant {\r\n        Listing memory listing = listings[listingId];\r\n        require(msg.value == listing.price, \"Incorrect price\");\r\n\r\n        delete listings[listingId]; // Remove the listing\r\n        payable(listing.seller).transfer(msg.value); // Transfer payment to seller\r\n        IERC721(listing.tokenAddress).transferFrom(address(this), msg.sender, listing.tokenId); // Transfer NFT to buyer\r\n    }\r\n\r\n    // Fetches a listing by ID\r\n    function getListing(uint256 listingId) external view returns (Listing memory) {\r\n        return listings[listingId];\r\n    }\r\n}\r\n",
  "sourcePath": "E:\\Code\\blockchain\\token\\ERC721\\NFTMarketplace\\contracts\\Market.sol",
  "compiler": {
    "name": "solc",
    "version": "0.8.20+commit.a1b79de6.Emscripten.clang"
  },
  "schemaVersion": "3.4.16",
  "updatedAt": "2024-08-02T17:16:06.456Z",
  "networkType": "ethereum",
  "devdoc": {
    "errors": {
      "ReentrancyGuardReentrantCall()": [
        {
          "details": "Unauthorized reentrant call."
        }
      ]
    },
    "kind": "dev",
    "methods": {},
    "version": 1
  },
  "userdoc": {
    "kind": "user",
    "methods": {},
    "version": 1
  }
}