{
  "contractName": "MyNFT",
  "abi": [
    {
      "inputs": [],
      "stateMutability": "nonpayable",
      "type": "constructor"
    },
    {
      "inputs": [
        {
          "internalType": "address",
          "name": "sender",
          "type": "address"
        },
        {
          "internalType": "uint256",
          "name": "tokenId",
          "type": "uint256"
        },
        {
          "internalType": "address",
          "name": "owner",
          "type": "address"
        }
      ],
      "name": "ERC721IncorrectOwner",
      "type": "error"
    },
    {
      "inputs": [
        {
          "internalType": "address",
          "name": "operator",
          "type": "address"
        },
        {
          "internalType": "uint256",
          "name": "tokenId",
          "type": "uint256"
        }
      ],
      "name": "ERC721InsufficientApproval",
      "type": "error"
    },
    {
      "inputs": [
        {
          "internalType": "address",
          "name": "approver",
          "type": "address"
        }
      ],
      "name": "ERC721InvalidApprover",
      "type": "error"
    },
    {
      "inputs": [
        {
          "internalType": "address",
          "name": "operator",
          "type": "address"
        }
      ],
      "name": "ERC721InvalidOperator",
      "type": "error"
    },
    {
      "inputs": [
        {
          "internalType": "address",
          "name": "owner",
          "type": "address"
        }
      ],
      "name": "ERC721InvalidOwner",
      "type": "error"
    },
    {
      "inputs": [
        {
          "internalType": "address",
          "name": "receiver",
          "type": "address"
        }
      ],
      "name": "ERC721InvalidReceiver",
      "type": "error"
    },
    {
      "inputs": [
        {
          "internalType": "address",
          "name": "sender",
          "type": "address"
        }
      ],
      "name": "ERC721InvalidSender",
      "type": "error"
    },
    {
      "inputs": [
        {
          "internalType": "uint256",
          "name": "tokenId",
          "type": "uint256"
        }
      ],
      "name": "ERC721NonexistentToken",
      "type": "error"
    },
    {
      "anonymous": false,
      "inputs": [
        {
          "indexed": true,
          "internalType": "address",
          "name": "owner",
          "type": "address"
        },
        {
          "indexed": true,
          "internalType": "address",
          "name": "approved",
          "type": "address"
        },
        {
          "indexed": true,
          "internalType": "uint256",
          "name": "tokenId",
          "type": "uint256"
        }
      ],
      "name": "Approval",
      "type": "event"
    },
    {
      "anonymous": false,
      "inputs": [
        {
          "indexed": true,
          "internalType": "address",
          "name": "owner",
          "type": "address"
        },
        {
          "indexed": true,
          "internalType": "address",
          "name": "operator",
          "type": "address"
        },
        {
          "indexed": false,
          "internalType": "bool",
          "name": "approved",
          "type": "bool"
        }
      ],
      "name": "ApprovalForAll",
      "type": "event"
    },
    {
      "anonymous": false,
      "inputs": [
        {
          "indexed": false,
          "internalType": "uint256",
          "name": "_fromTokenId",
          "type": "uint256"
        },
        {
          "indexed": false,
          "internalType": "uint256",
          "name": "_toTokenId",
          "type": "uint256"
        }
      ],
      "name": "BatchMetadataUpdate",
      "type": "event"
    },
    {
      "anonymous": false,
      "inputs": [
        {
          "indexed": false,
          "internalType": "uint256",
          "name": "_tokenId",
          "type": "uint256"
        }
      ],
      "name": "MetadataUpdate",
      "type": "event"
    },
    {
      "anonymous": false,
      "inputs": [
        {
          "indexed": true,
          "internalType": "address",
          "name": "from",
          "type": "address"
        },
        {
          "indexed": true,
          "internalType": "address",
          "name": "to",
          "type": "address"
        },
        {
          "indexed": true,
          "internalType": "uint256",
          "name": "tokenId",
          "type": "uint256"
        }
      ],
      "name": "Transfer",
      "type": "event"
    },
    {
      "inputs": [
        {
          "internalType": "address",
          "name": "to",
          "type": "address"
        },
        {
          "internalType": "uint256",
          "name": "tokenId",
          "type": "uint256"
        }
      ],
      "name": "approve",
      "outputs": [],
      "stateMutability": "nonpayable",
      "type": "function"
    },
    {
      "inputs": [
        {
          "internalType": "address",
          "name": "owner",
          "type": "address"
        }
      ],
      "name": "balanceOf",
      "outputs": [
        {
          "internalType": "uint256",
          "name": "",
          "type": "uint256"
        }
      ],
      "stateMutability": "view",
      "type": "function",
      "constant": true
    },
    {
      "inputs": [
        {
          "internalType": "uint256",
          "name": "tokenId",
          "type": "uint256"
        }
      ],
      "name": "getApproved",
      "outputs": [
        {
          "internalType": "address",
          "name": "",
          "type": "address"
        }
      ],
      "stateMutability": "view",
      "type": "function",
      "constant": true
    },
    {
      "inputs": [
        {
          "internalType": "address",
          "name": "owner",
          "type": "address"
        },
        {
          "internalType": "address",
          "name": "operator",
          "type": "address"
        }
      ],
      "name": "isApprovedForAll",
      "outputs": [
        {
          "internalType": "bool",
          "name": "",
          "type": "bool"
        }
      ],
      "stateMutability": "view",
      "type": "function",
      "constant": true
    },
    {
      "inputs": [],
      "name": "name",
      "outputs": [
        {
          "internalType": "string",
          "name": "",
          "type": "string"
        }
      ],
      "stateMutability": "view",
      "type": "function",
      "constant": true
    },
    {
      "inputs": [
        {
          "internalType": "uint256",
          "name": "tokenId",
          "type": "uint256"
        }
      ],
      "name": "ownerOf",
      "outputs": [
        {
          "internalType": "address",
          "name": "",
          "type": "address"
        }
      ],
      "stateMutability": "view",
      "type": "function",
      "constant": true
    },
    {
      "inputs": [
        {
          "internalType": "address",
          "name": "from",
          "type": "address"
        },
        {
          "internalType": "address",
          "name": "to",
          "type": "address"
        },
        {
          "internalType": "uint256",
          "name": "tokenId",
          "type": "uint256"
        }
      ],
      "name": "safeTransferFrom",
      "outputs": [],
      "stateMutability": "nonpayable",
      "type": "function"
    },
    {
      "inputs": [
        {
          "internalType": "address",
          "name": "from",
          "type": "address"
        },
        {
          "internalType": "address",
          "name": "to",
          "type": "address"
        },
        {
          "internalType": "uint256",
          "name": "tokenId",
          "type": "uint256"
        },
        {
          "internalType": "bytes",
          "name": "data",
          "type": "bytes"
        }
      ],
      "name": "safeTransferFrom",
      "outputs": [],
      "stateMutability": "nonpayable",
      "type": "function"
    },
    {
      "inputs": [
        {
          "internalType": "address",
          "name": "operator",
          "type": "address"
        },
        {
          "internalType": "bool",
          "name": "approved",
          "type": "bool"
        }
      ],
      "name": "setApprovalForAll",
      "outputs": [],
      "stateMutability": "nonpayable",
      "type": "function"
    },
    {
      "inputs": [
        {
          "internalType": "bytes4",
          "name": "interfaceId",
          "type": "bytes4"
        }
      ],
      "name": "supportsInterface",
      "outputs": [
        {
          "internalType": "bool",
          "name": "",
          "type": "bool"
        }
      ],
      "stateMutability": "view",
      "type": "function",
      "constant": true
    },
    {
      "inputs": [],
      "name": "symbol",
      "outputs": [
        {
          "internalType": "string",
          "name": "",
          "type": "string"
        }
      ],
      "stateMutability": "view",
      "type": "function",
      "constant": true
    },
    {
      "inputs": [
        {
          "internalType": "uint256",
          "name": "tokenId",
          "type": "uint256"
        }
      ],
      "name": "tokenURI",
      "outputs": [
        {
          "internalType": "string",
          "name": "",
          "type": "string"
        }
      ],
      "stateMutability": "view",
      "type": "function",
      "constant": true
    },
    {
      "inputs": [
        {
          "internalType": "address",
          "name": "from",
          "type": "address"
        },
        {
          "internalType": "address",
          "name": "to",
          "type": "address"
        },
        {
          "internalType": "uint256",
          "name": "tokenId",
          "type": "uint256"
        }
      ],
      "name": "transferFrom",
      "outputs": [],
      "stateMutability": "nonpayable",
      "type": "function"
    },
    {
      "inputs": [
        {
          "internalType": "address",
          "name": "recipient",
          "type": "address"
        },
        {
          "internalType": "string",
          "name": "tokenURI",
          "type": "string"
        }
      ],
      "name": "mintNFT",
      "outputs": [
        {
          "internalType": "uint256",
          "name": "",
          "type": "uint256"
        }
      ],
      "stateMutability": "nonpayable",
      "type": "function"
    }
  ],
  "bytecode": "0x60806040523480156200001157600080fd5b506040518060400160405280600881526020017f4e6577546f6b656e0000000000000000000000000000000000000000000000008152506040518060400160405280600281526020017f4e5400000000000000000000000000000000000000000000000000000000000081525081600090816200008f919062000332565b508060019081620000a1919062000332565b505050600060078190555062000419565b600081519050919050565b7f4e487b7100000000000000000000000000000000000000000000000000000000600052604160045260246000fd5b7f4e487b7100000000000000000000000000000000000000000000000000000000600052602260045260246000fd5b600060028204905060018216806200013457607f821691505b6020821081036200014a5762000149620000ec565b5b50919050565b60008190508160005260206000209050919050565b60006020601f8301049050919050565b60008160020a8302905092915050565b600060088302620001b77fffffffffffffffffffffffffffffffffffffffffffffffffffffffffffffffff8262000175565b620001c3868362000175565b95508019841693508086168417925050509392505050565b6000819050919050565b6000819050919050565b6000620002106200020a6200020484620001db565b620001e5565b620001db565b9050919050565b6000819050919050565b6200022c83620001ef565b620002446200023b8262000217565b84845462000185565b825550505050565b600090565b6200025b6200024c565b6200026881848462000221565b505050565b5b8181101562000290576200028460008262000251565b6001810190506200026e565b5050565b601f821115620002df57620002a98162000150565b620002b48462000165565b81016020851015620002c4578190505b620002dc620002d38562000165565b8301826200026d565b50505b505050565b60008160020a8304905092915050565b60006200030760001984600802620002e4565b1980831691505092915050565b6000620003228383620002f4565b9150826002028217905092915050565b6200033d82620000b2565b67ffffffffffffffff811115620003595762000358620000bd565b5b6200036582546200011b565b6200037282828562000294565b600060209050601f831160018114620003aa576000841562000395578287015190505b620003a1858262000314565b86555062000411565b601f198416620003ba8662000150565b60005b82811015620003e457848901518255600182019150602085019450602081019050620003bd565b8683101562000404578489015162000400601f891682620002f4565b8355505b6001600288020188555050505b505050505050565b61243880620004296000396000f3fe608060405234801561001057600080fd5b5060043610610107576000357c01000000000000000000000000000000000000000000000000000000009004806370a08231116100a9578063b88d4fde11610083578063b88d4fde14610278578063c87b56dd14610294578063e985e9c5146102c4578063eacabe14146102f457610107565b806370a082311461020e57806395d89b411461023e578063a22cb4651461025c57610107565b8063095ea7b3116100e5578063095ea7b31461018a57806323b872dd146101a657806342842e0e146101c25780636352211e146101de57610107565b806301ffc9a71461010c57806306fdde031461013c578063081812fc1461015a575b600080fd5b6101266004803603810190610121919061188a565b610324565b60405161013391906118d2565b60405180910390f35b6101446103a1565b604051610151919061197d565b60405180910390f35b610174600480360381019061016f91906119d5565b610433565b6040516101819190611a43565b60405180910390f35b6101a4600480360381019061019f9190611a8a565b61044f565b005b6101c060048036038101906101bb9190611aca565b610465565b005b6101dc60048036038101906101d79190611aca565b610567565b005b6101f860048036038101906101f391906119d5565b610587565b6040516102059190611a43565b60405180910390f35b61022860048036038101906102239190611b1d565b610599565b6040516102359190611b59565b60405180910390f35b610246610653565b604051610253919061197d565b60405180910390f35b61027660048036038101906102719190611ba0565b6106e5565b005b610292600480360381019061028d9190611d15565b6106fb565b005b6102ae60048036038101906102a991906119d5565b610718565b6040516102bb919061197d565b60405180910390f35b6102de60048036038101906102d99190611d98565b61082b565b6040516102eb91906118d2565b60405180910390f35b61030e60048036038101906103099190611e79565b6108bf565b60405161031b9190611b59565b60405180910390f35b600063490649067c0100000000000000000000000000000000000000000000000000000000027bffffffffffffffffffffffffffffffffffffffffffffffffffffffff1916827bffffffffffffffffffffffffffffffffffffffffffffffffffffffff1916148061039a5750610399826108fe565b5b9050919050565b6060600080546103b090611f04565b80601f01602080910402602001604051908101604052809291908181526020018280546103dc90611f04565b80156104295780601f106103fe57610100808354040283529160200191610429565b820191906000526020600020905b81548152906001019060200180831161040c57829003601f168201915b5050505050905090565b600061043e826109e0565b5061044882610a68565b9050919050565b610461828261045c610aa5565b610aad565b5050565b600073ffffffffffffffffffffffffffffffffffffffff168273ffffffffffffffffffffffffffffffffffffffff16036104d75760006040517f64a0ae920000000000000000000000000000000000000000000000000000000081526004016104ce9190611a43565b60405180910390fd5b60006104eb83836104e6610aa5565b610abf565b90508373ffffffffffffffffffffffffffffffffffffffff168173ffffffffffffffffffffffffffffffffffffffff1614610561578382826040517f64283d7b00000000000000000000000000000000000000000000000000000000815260040161055893929190611f35565b60405180910390fd5b50505050565b610582838383604051806020016040528060008152506106fb565b505050565b6000610592826109e0565b9050919050565b60008073ffffffffffffffffffffffffffffffffffffffff168273ffffffffffffffffffffffffffffffffffffffff160361060c5760006040517f89c62b640000000000000000000000000000000000000000000000000000000081526004016106039190611a43565b60405180910390fd5b600360008373ffffffffffffffffffffffffffffffffffffffff1673ffffffffffffffffffffffffffffffffffffffff168152602001908152602001600020549050919050565b60606001805461066290611f04565b80601f016020809104026020016040519081016040528092919081815260200182805461068e90611f04565b80156106db5780601f106106b0576101008083540402835291602001916106db565b820191906000526020600020905b8154815290600101906020018083116106be57829003601f168201915b5050505050905090565b6106f76106f0610aa5565b8383610cd9565b5050565b610706848484610465565b61071284848484610e48565b50505050565b6060610723826109e0565b50600060066000848152602001908152602001600020805461074490611f04565b80601f016020809104026020016040519081016040528092919081815260200182805461077090611f04565b80156107bd5780601f10610792576101008083540402835291602001916107bd565b820191906000526020600020905b8154815290600101906020018083116107a057829003601f168201915b5050505050905060006107ce611037565b905060008151036107e3578192505050610826565b600082511115610818578082604051602001610800929190611fa8565b60405160208183030381529060405292505050610826565b6108218461104e565b925050505b919050565b6000600560008473ffffffffffffffffffffffffffffffffffffffff1673ffffffffffffffffffffffffffffffffffffffff16815260200190815260200160002060008373ffffffffffffffffffffffffffffffffffffffff1673ffffffffffffffffffffffffffffffffffffffff16815260200190815260200160002060009054906101000a900460ff16905092915050565b6000600760008154809291906108d490611ffb565b9190505550600060075490506108ea84826110b7565b6108f481846111b0565b8091505092915050565b60007f80ac58cd000000000000000000000000000000000000000000000000000000007bffffffffffffffffffffffffffffffffffffffffffffffffffffffff1916827bffffffffffffffffffffffffffffffffffffffffffffffffffffffff191614806109c957507f5b5e139f000000000000000000000000000000000000000000000000000000007bffffffffffffffffffffffffffffffffffffffffffffffffffffffff1916827bffffffffffffffffffffffffffffffffffffffffffffffffffffffff1916145b806109d957506109d88261120c565b5b9050919050565b6000806109ec83611276565b9050600073ffffffffffffffffffffffffffffffffffffffff168173ffffffffffffffffffffffffffffffffffffffff1603610a5f57826040517f7e273289000000000000000000000000000000000000000000000000000000008152600401610a569190611b59565b60405180910390fd5b80915050919050565b60006004600083815260200190815260200160002060009054906101000a900473ffffffffffffffffffffffffffffffffffffffff169050919050565b600033905090565b610aba83838360016112b3565b505050565b600080610acb84611276565b9050600073ffffffffffffffffffffffffffffffffffffffff168373ffffffffffffffffffffffffffffffffffffffff1614610b0d57610b0c818486611478565b5b600073ffffffffffffffffffffffffffffffffffffffff168173ffffffffffffffffffffffffffffffffffffffff1614610b9e57610b4f6000856000806112b3565b6001600360008373ffffffffffffffffffffffffffffffffffffffff1673ffffffffffffffffffffffffffffffffffffffff168152602001908152602001600020600082825403925050819055505b600073ffffffffffffffffffffffffffffffffffffffff168573ffffffffffffffffffffffffffffffffffffffff1614610c21576001600360008773ffffffffffffffffffffffffffffffffffffffff1673ffffffffffffffffffffffffffffffffffffffff168152602001908152602001600020600082825401925050819055505b846002600086815260200190815260200160002060006101000a81548173ffffffffffffffffffffffffffffffffffffffff021916908373ffffffffffffffffffffffffffffffffffffffff160217905550838573ffffffffffffffffffffffffffffffffffffffff168273ffffffffffffffffffffffffffffffffffffffff167fddf252ad1be2c89b69c2b068fc378daa952ba7f163c4a11628f55a4df523b3ef60405160405180910390a4809150509392505050565b600073ffffffffffffffffffffffffffffffffffffffff168273ffffffffffffffffffffffffffffffffffffffff1603610d4a57816040517f5b08ba18000000000000000000000000000000000000000000000000000000008152600401610d419190611a43565b60405180910390fd5b80600560008573ffffffffffffffffffffffffffffffffffffffff1673ffffffffffffffffffffffffffffffffffffffff16815260200190815260200160002060008473ffffffffffffffffffffffffffffffffffffffff1673ffffffffffffffffffffffffffffffffffffffff16815260200190815260200160002060006101000a81548160ff0219169083151502179055508173ffffffffffffffffffffffffffffffffffffffff168373ffffffffffffffffffffffffffffffffffffffff167f17307eab39ab6107e8899845ad3d59bd9653f200f220920489ca2b5937696c3183604051610e3b91906118d2565b60405180910390a3505050565b60008373ffffffffffffffffffffffffffffffffffffffff163b1115611031578273ffffffffffffffffffffffffffffffffffffffff1663150b7a02610e8c610aa5565b8685856040518563ffffffff167c0100000000000000000000000000000000000000000000000000000000028152600401610eca9493929190612098565b6020604051808303816000875af1925050508015610f0657506040513d601f19601f82011682018060405250810190610f0391906120f9565b60015b610f8a573d8060008114610f36576040519150601f19603f3d011682016040523d82523d6000602084013e610f3b565b606091505b506000815103610f8257836040517f64a0ae92000000000000000000000000000000000000000000000000000000008152600401610f799190611a43565b60405180910390fd5b805181602001fd5b63150b7a027c0100000000000000000000000000000000000000000000000000000000027bffffffffffffffffffffffffffffffffffffffffffffffffffffffff1916817bffffffffffffffffffffffffffffffffffffffffffffffffffffffff19161461102f57836040517f64a0ae920000000000000000000000000000000000000000000000000000000081526004016110269190611a43565b60405180910390fd5b505b50505050565b606060405180602001604052806000815250905090565b6060611059826109e0565b506000611064611037565b9050600081511161108457604051806020016040528060008152506110af565b8061108e8461153c565b60405160200161109f929190611fa8565b6040516020818303038152906040525b915050919050565b600073ffffffffffffffffffffffffffffffffffffffff168273ffffffffffffffffffffffffffffffffffffffff16036111295760006040517f64a0ae920000000000000000000000000000000000000000000000000000000081526004016111209190611a43565b60405180910390fd5b600061113783836000610abf565b9050600073ffffffffffffffffffffffffffffffffffffffff168173ffffffffffffffffffffffffffffffffffffffff16146111ab5760006040517f73c6ac6e0000000000000000000000000000000000000000000000000000000081526004016111a29190611a43565b60405180910390fd5b505050565b806006600084815260200190815260200160002090816111d091906122d8565b507ff8e1a15aba9398e019f0b49df1a4fde98ee17ae345cb5f6b5e2c27f5033e8ce7826040516112009190611b59565b60405180910390a15050565b60007f01ffc9a7000000000000000000000000000000000000000000000000000000007bffffffffffffffffffffffffffffffffffffffffffffffffffffffff1916827bffffffffffffffffffffffffffffffffffffffffffffffffffffffff1916149050919050565b60006002600083815260200190815260200160002060009054906101000a900473ffffffffffffffffffffffffffffffffffffffff169050919050565b80806112ec5750600073ffffffffffffffffffffffffffffffffffffffff168273ffffffffffffffffffffffffffffffffffffffff1614155b156114205760006112fc846109e0565b9050600073ffffffffffffffffffffffffffffffffffffffff168373ffffffffffffffffffffffffffffffffffffffff161415801561136757508273ffffffffffffffffffffffffffffffffffffffff168173ffffffffffffffffffffffffffffffffffffffff1614155b801561137a5750611378818461082b565b155b156113bc57826040517fa9fbf51f0000000000000000000000000000000000000000000000000000000081526004016113b39190611a43565b60405180910390fd5b811561141e57838573ffffffffffffffffffffffffffffffffffffffff168273ffffffffffffffffffffffffffffffffffffffff167f8c5be1e5ebec7d5bd14f71427d1e84f3dd0314c0f7b2291e5b200ac8c7c3b92560405160405180910390a45b505b836004600085815260200190815260200160002060006101000a81548173ffffffffffffffffffffffffffffffffffffffff021916908373ffffffffffffffffffffffffffffffffffffffff16021790555050505050565b61148383838361160a565b61153757600073ffffffffffffffffffffffffffffffffffffffff168373ffffffffffffffffffffffffffffffffffffffff16036114f857806040517f7e2732890000000000000000000000000000000000000000000000000000000081526004016114ef9190611b59565b60405180910390fd5b81816040517f177e802f00000000000000000000000000000000000000000000000000000000815260040161152e9291906123aa565b60405180910390fd5b505050565b60606000600161154b846116cb565b01905060008167ffffffffffffffff81111561156a57611569611bea565b5b6040519080825280601f01601f19166020018201604052801561159c5781602001600182028036833780820191505090505b509050600082602001820190505b6001156115ff578080600190039150507f3031323334353637383961626364656600000000000000000000000000000000600a86061a8153600a85816115f3576115f26123d3565b5b049450600085036115aa575b819350505050919050565b60008073ffffffffffffffffffffffffffffffffffffffff168373ffffffffffffffffffffffffffffffffffffffff16141580156116c257508273ffffffffffffffffffffffffffffffffffffffff168473ffffffffffffffffffffffffffffffffffffffff1614806116835750611682848461082b565b5b806116c157508273ffffffffffffffffffffffffffffffffffffffff166116a983610a68565b73ffffffffffffffffffffffffffffffffffffffff16145b5b90509392505050565b600080600090507a184f03e93ff9f4daa797ed6e38ed64bf6a1f0100000000000000008310611729577a184f03e93ff9f4daa797ed6e38ed64bf6a1f010000000000000000838161171f5761171e6123d3565b5b0492506040810190505b6d04ee2d6d415b85acef81000000008310611766576d04ee2d6d415b85acef8100000000838161175c5761175b6123d3565b5b0492506020810190505b662386f26fc10000831061179557662386f26fc10000838161178b5761178a6123d3565b5b0492506010810190505b6305f5e10083106117be576305f5e10083816117b4576117b36123d3565b5b0492506008810190505b61271083106117e35761271083816117d9576117d86123d3565b5b0492506004810190505b6064831061180657606483816117fc576117fb6123d3565b5b0492506002810190505b600a8310611815576001810190505b80915050919050565b6000604051905090565b600080fd5b600080fd5b60007fffffffff0000000000000000000000000000000000000000000000000000000082169050919050565b61186781611832565b811461187257600080fd5b50565b6000813590506118848161185e565b92915050565b6000602082840312156118a05761189f611828565b5b60006118ae84828501611875565b91505092915050565b60008115159050919050565b6118cc816118b7565b82525050565b60006020820190506118e760008301846118c3565b92915050565b600081519050919050565b600082825260208201905092915050565b60005b8381101561192757808201518184015260208101905061190c565b60008484015250505050565b6000601f19601f8301169050919050565b600061194f826118ed565b61195981856118f8565b9350611969818560208601611909565b61197281611933565b840191505092915050565b600060208201905081810360008301526119978184611944565b905092915050565b6000819050919050565b6119b28161199f565b81146119bd57600080fd5b50565b6000813590506119cf816119a9565b92915050565b6000602082840312156119eb576119ea611828565b5b60006119f9848285016119c0565b91505092915050565b600073ffffffffffffffffffffffffffffffffffffffff82169050919050565b6000611a2d82611a02565b9050919050565b611a3d81611a22565b82525050565b6000602082019050611a586000830184611a34565b92915050565b611a6781611a22565b8114611a7257600080fd5b50565b600081359050611a8481611a5e565b92915050565b60008060408385031215611aa157611aa0611828565b5b6000611aaf85828601611a75565b9250506020611ac0858286016119c0565b9150509250929050565b600080600060608486031215611ae357611ae2611828565b5b6000611af186828701611a75565b9350506020611b0286828701611a75565b9250506040611b13868287016119c0565b9150509250925092565b600060208284031215611b3357611b32611828565b5b6000611b4184828501611a75565b91505092915050565b611b538161199f565b82525050565b6000602082019050611b6e6000830184611b4a565b92915050565b611b7d816118b7565b8114611b8857600080fd5b50565b600081359050611b9a81611b74565b92915050565b60008060408385031215611bb757611bb6611828565b5b6000611bc585828601611a75565b9250506020611bd685828601611b8b565b9150509250929050565b600080fd5b600080fd5b7f4e487b7100000000000000000000000000000000000000000000000000000000600052604160045260246000fd5b611c2282611933565b810181811067ffffffffffffffff82111715611c4157611c40611bea565b5b80604052505050565b6000611c5461181e565b9050611c608282611c19565b919050565b600067ffffffffffffffff821115611c8057611c7f611bea565b5b611c8982611933565b9050602081019050919050565b82818337600083830152505050565b6000611cb8611cb384611c65565b611c4a565b905082815260208101848484011115611cd457611cd3611be5565b5b611cdf848285611c96565b509392505050565b600082601f830112611cfc57611cfb611be0565b5b8135611d0c848260208601611ca5565b91505092915050565b60008060008060808587031215611d2f57611d2e611828565b5b6000611d3d87828801611a75565b9450506020611d4e87828801611a75565b9350506040611d5f878288016119c0565b925050606085013567ffffffffffffffff811115611d8057611d7f61182d565b5b611d8c87828801611ce7565b91505092959194509250565b60008060408385031215611daf57611dae611828565b5b6000611dbd85828601611a75565b9250506020611dce85828601611a75565b9150509250929050565b600067ffffffffffffffff821115611df357611df2611bea565b5b611dfc82611933565b9050602081019050919050565b6000611e1c611e1784611dd8565b611c4a565b905082815260208101848484011115611e3857611e37611be5565b5b611e43848285611c96565b509392505050565b600082601f830112611e6057611e5f611be0565b5b8135611e70848260208601611e09565b91505092915050565b60008060408385031215611e9057611e8f611828565b5b6000611e9e85828601611a75565b925050602083013567ffffffffffffffff811115611ebf57611ebe61182d565b5b611ecb85828601611e4b565b9150509250929050565b7f4e487b7100000000000000000000000000000000000000000000000000000000600052602260045260246000fd5b60006002820490506001821680611f1c57607f821691505b602082108103611f2f57611f2e611ed5565b5b50919050565b6000606082019050611f4a6000830186611a34565b611f576020830185611b4a565b611f646040830184611a34565b949350505050565b600081905092915050565b6000611f82826118ed565b611f8c8185611f6c565b9350611f9c818560208601611909565b80840191505092915050565b6000611fb48285611f77565b9150611fc08284611f77565b91508190509392505050565b7f4e487b7100000000000000000000000000000000000000000000000000000000600052601160045260246000fd5b60006120068261199f565b91507fffffffffffffffffffffffffffffffffffffffffffffffffffffffffffffffff820361203857612037611fcc565b5b600182019050919050565b600081519050919050565b600082825260208201905092915050565b600061206a82612043565b612074818561204e565b9350612084818560208601611909565b61208d81611933565b840191505092915050565b60006080820190506120ad6000830187611a34565b6120ba6020830186611a34565b6120c76040830185611b4a565b81810360608301526120d9818461205f565b905095945050505050565b6000815190506120f38161185e565b92915050565b60006020828403121561210f5761210e611828565b5b600061211d848285016120e4565b91505092915050565b60008190508160005260206000209050919050565b60006020601f8301049050919050565b60008160020a8302905092915050565b60006008830261218b7fffffffffffffffffffffffffffffffffffffffffffffffffffffffffffffffff8261214b565b612195868361214b565b95508019841693508086168417925050509392505050565b6000819050919050565b60006121d26121cd6121c88461199f565b6121ad565b61199f565b9050919050565b6000819050919050565b6121ec836121b7565b6122006121f8826121d9565b84845461215b565b825550505050565b600090565b612215612208565b6122208184846121e3565b505050565b5b818110156122445761223960008261220d565b600181019050612226565b5050565b601f8211156122895761225a81612126565b6122638461213b565b81016020851015612272578190505b61228661227e8561213b565b830182612225565b50505b505050565b60008160020a8304905092915050565b60006122af6000198460080261228e565b1980831691505092915050565b60006122c8838361229e565b9150826002028217905092915050565b6122e1826118ed565b67ffffffffffffffff8111156122fa576122f9611bea565b5b6123048254611f04565b61230f828285612248565b600060209050601f8311600181146123425760008415612330578287015190505b61233a85826122bc565b8655506123a2565b601f19841661235086612126565b60005b8281101561237857848901518255600182019150602085019450602081019050612353565b868310156123955784890151612391601f89168261229e565b8355505b6001600288020188555050505b505050505050565b60006040820190506123bf6000830185611a34565b6123cc6020830184611b4a565b9392505050565b7f4e487b7100000000000000000000000000000000000000000000000000000000600052601260045260246000fdfea264697066735822122009f5c0a01d370f66a98af4037b5b6b684d0b6661f1de0410560097a60ca752c564736f6c63430008140033",
  "immutableReferences": {},
  "source": "    // SPDX-License-Identifier: MIT\r\n    pragma solidity ^0.8.0;\r\n\r\n    import \"@openzeppelin/contracts/token/ERC721/ERC721.sol\";\r\n    import \"@openzeppelin/contracts/token/ERC721/extensions/ERC721URIStorage.sol\";\r\n    // import \"@openzeppelin/contracts/access/Ownable.sol\";\r\n\r\n    contract MyNFT is ERC721URIStorage{\r\n        uint256 private _currentTokenId;\r\n\r\n        constructor() ERC721(\"NewToken\", \"NT\")  {\r\n            _currentTokenId = 0;\r\n        }\r\n        \r\n        function mintNFT(address recipient, string memory tokenURI)\r\n            public\r\n            returns (uint256)\r\n        {\r\n            _currentTokenId++;\r\n\r\n            uint256 newItemId = _currentTokenId;\r\n            _mint(recipient, newItemId);\r\n            _setTokenURI(newItemId, tokenURI);\r\n            return newItemId;\r\n        }\r\n\r\n    }\r\n",
  "sourcePath": "E:\\Code\\blockchain\\token\\ERC721\\NFTMarketplace\\contracts\\NFT.sol",
  "compiler": {
    "name": "solc",
    "version": "0.8.20+commit.a1b79de6.Emscripten.clang"
  },
  "schemaVersion": "3.4.16",
  "updatedAt": "2024-08-02T17:16:06.443Z",
  "networkType": "ethereum",
  "devdoc": {
    "errors": {
      "ERC721IncorrectOwner(address,uint256,address)": [
        {
          "details": "Indicates an error related to the ownership over a particular token. Used in transfers.",
          "params": {
            "owner": "Address of the current owner of a token.",
            "sender": "Address whose tokens are being transferred.",
            "tokenId": "Identifier number of a token."
          }
        }
      ],
      "ERC721InsufficientApproval(address,uint256)": [
        {
          "details": "Indicates a failure with the `operator`s approval. Used in transfers.",
          "params": {
            "operator": "Address that may be allowed to operate on tokens without being their owner.",
            "tokenId": "Identifier number of a token."
          }
        }
      ],
      "ERC721InvalidApprover(address)": [
        {
          "details": "Indicates a failure with the `approver` of a token to be approved. Used in approvals.",
          "params": {
            "approver": "Address initiating an approval operation."
          }
        }
      ],
      "ERC721InvalidOperator(address)": [
        {
          "details": "Indicates a failure with the `operator` to be approved. Used in approvals.",
          "params": {
            "operator": "Address that may be allowed to operate on tokens without being their owner."
          }
        }
      ],
      "ERC721InvalidOwner(address)": [
        {
          "details": "Indicates that an address can't be an owner. For example, `address(0)` is a forbidden owner in EIP-20. Used in balance queries.",
          "params": {
            "owner": "Address of the current owner of a token."
          }
        }
      ],
      "ERC721InvalidReceiver(address)": [
        {
          "details": "Indicates a failure with the token `receiver`. Used in transfers.",
          "params": {
            "receiver": "Address to which tokens are being transferred."
          }
        }
      ],
      "ERC721InvalidSender(address)": [
        {
          "details": "Indicates a failure with the token `sender`. Used in transfers.",
          "params": {
            "sender": "Address whose tokens are being transferred."
          }
        }
      ],
      "ERC721NonexistentToken(uint256)": [
        {
          "details": "Indicates a `tokenId` whose `owner` is the zero address.",
          "params": {
            "tokenId": "Identifier number of a token."
          }
        }
      ]
    },
    "events": {
      "Approval(address,address,uint256)": {
        "details": "Emitted when `owner` enables `approved` to manage the `tokenId` token."
      },
      "ApprovalForAll(address,address,bool)": {
        "details": "Emitted when `owner` enables or disables (`approved`) `operator` to manage all of its assets."
      },
      "BatchMetadataUpdate(uint256,uint256)": {
        "details": "This event emits when the metadata of a range of tokens is changed. So that the third-party platforms such as NFT market could timely update the images and related attributes of the NFTs."
      },
      "MetadataUpdate(uint256)": {
        "details": "This event emits when the metadata of a token is changed. So that the third-party platforms such as NFT market could timely update the images and related attributes of the NFT."
      },
      "Transfer(address,address,uint256)": {
        "details": "Emitted when `tokenId` token is transferred from `from` to `to`."
      }
    },
    "kind": "dev",
    "methods": {
      "approve(address,uint256)": {
        "details": "See {IERC721-approve}."
      },
      "balanceOf(address)": {
        "details": "See {IERC721-balanceOf}."
      },
      "getApproved(uint256)": {
        "details": "See {IERC721-getApproved}."
      },
      "isApprovedForAll(address,address)": {
        "details": "See {IERC721-isApprovedForAll}."
      },
      "name()": {
        "details": "See {IERC721Metadata-name}."
      },
      "ownerOf(uint256)": {
        "details": "See {IERC721-ownerOf}."
      },
      "safeTransferFrom(address,address,uint256)": {
        "details": "See {IERC721-safeTransferFrom}."
      },
      "safeTransferFrom(address,address,uint256,bytes)": {
        "details": "See {IERC721-safeTransferFrom}."
      },
      "setApprovalForAll(address,bool)": {
        "details": "See {IERC721-setApprovalForAll}."
      },
      "supportsInterface(bytes4)": {
        "details": "See {IERC165-supportsInterface}"
      },
      "symbol()": {
        "details": "See {IERC721Metadata-symbol}."
      },
      "tokenURI(uint256)": {
        "details": "See {IERC721Metadata-tokenURI}."
      },
      "transferFrom(address,address,uint256)": {
        "details": "See {IERC721-transferFrom}."
      }
    },
    "version": 1
  },
  "userdoc": {
    "kind": "user",
    "methods": {},
    "version": 1
  }
}